:020000023000CC
:10E0000077C000009CC000009AC0000098C00000CB
:10E0100096C0000094C0000092C0000090C00000B4
:10E020008EC000008CC000008AC0000088C00000C4
:10E0300086C0000084C0000082C0000080C00000D4
:10E040007EC000007CC000007AC0000078C00000E4
:10E0500076C0000074C0000072C0000070C00000F4
:10E060006EC000006CC000006AC0000068C0000004
:10E0700066C0000064C0000062C0000060C0000014
:10E080005EC000005CC000005AC0000058C0000024
:10E0900056C0000054C0000052C0000050C0000034
:10E0A0004EC000004CC000004AC0000048C0000044
:10E0B00046C0000044C0000042C0000040C0000054
:10E0C0003EC000003CC000003AC0000038C0000064
:10E0D00036C0000034C0000032C0000030C0000074
:10E0E0002EC0000041546D65676132353630000046
:10E0F00011241FBECFEFD1E2DEBFCDBF01E00CBFC8
:10E1000012E0A0E0B2E0E2E1F7EF03E00BBF02C0F3
:10E1100007900D92A231B107D9F723E0A2E1B2E056
:10E1200001C01D92AD34B207E1F790D60D9487FB84
:10E1300001E20EBF0FEF0DBF11241FBE87C660CFD7
:10E140008093C6008091C00086FFFCCF8091C00004
:10E1500080648093C000089520E030E028173907DC
:10E1600049F0EFECF7E03197F1F700C000002F5FC6
:10E170003F4FF4CF0895CF93DF93EC01C60FD11D2D
:10E18000AE0160E070E06BBFFA018791882319F05F
:10E190002196D6DFF5CFDF91CF9108958DE0D0DFC6
:10E1A0008AE0CECFE8DFFACFCF93DF93EC018991FD
:10E1B000882311F0C5DFFBCFDF91CF910895CF9376
:10E1C000C82F982F92959F7080E3890F8A3310F0A3
:10E1D00087E3890FB5DFCF7080E38C0F8A3310F0AF
:10E1E00087E38C0FCF91ACCF0F931F93CF93DF9327
:10E1F000EC018B01853691051CF46330710544F008
:10E20000CE0164E670E00F9408FB80E3860F98DF90
:10E21000CB30D1051CF40230110564F0CE0164E668
:10E2200070E00F9408FB6AE070E00F9408FB80E355
:10E23000860F86DFCE016AE070E00F9408FB805DF8
:10E24000DF91CF911F910F917BCF0F931F93E0919F
:10E250001402F09115029B01AC01225031094109D1
:10E26000510986819781A085B1850297A109B109DD
:10E27000281739074A075B0768F4A281B0E00F94BA
:10E280003DFB0289138924893589600F711F821F24
:10E29000931F03C060E070E0CB011F910F910895C0
:10E2A0000F931F93CF93DF93DC01E0911402F09161
:10E2B000150211961C921E9214966D917D918D916E
:10E2C0009C911797613071058105910559F106817F
:10E2D000178120853185601771078207930710F534
:10E2E000611571058105910539F42081233021F4F0
:10E2F0006685778580899189ED01688779878A8726
:10E300009B87611571058105910511F09EDF04C0A1
:10E3100066857785808991896C877D878E879F87C1
:10E3200080E001C081E0DF91CF911F910F910895AE
:10E33000CF92DF92EF92FF920F931F93CF93DF93D1
:10E3400000D01F92CDB7DEB7E0911402F091150214
:10E35000623071058105910508F457C0C680D780E9
:10E36000E084F1846C157D058E059F0508F04DC095
:10E370002081223019F02330F9F047C09B01332768
:10E38000220F331FBB27A92F982F872FC284D38436
:10E39000E484F584AC01BD014C0D5D1D6E1D7F1D37
:10E3A00002E010E0CE010196A7D481112EC0698150
:10E3B0007A8180E090E02DC09B012F773327220FD8
:10E3C000331F220F331FDC01CB0157E0B695A79511
:10E3D000979587955A95D1F7C284D384E484F584C0
:10E3E000AC01BD014C0D5D1D6E1D7F1D04E010E0F4
:10E3F000CE01019681D4811108C089819A81AB81B7
:10E40000BC81BC01CD019F7004C061E070E080E080
:10E4100090E00F900F900F900F90DF91CF911F9190
:10E420000F91FF90EF90DF90CF900895CF92DF9201
:10E43000EF92FF920F931F93CF93DF93EC016A014A
:10E440007B0102E010E02EEF31E056D4811124C0B0
:10E450008881998185359A4A09F526E330E0B7012C
:10E46000A601CE0149D4811107C0888199818634E3
:10E47000914411F480E015C002E010E022E530E0A4
:10E48000B701A601CE0138D481110AC088819981D3
:10E490008634914429F4EECF83E003C082E001C0CA
:10E4A00081E0DF91CF911F910F91FF90EF90DF906E
:10E4B000CF9008952F923F924F925F926F927F92EA
:10E4C0008F929F92AF92BF92CF92DF92EF92FF9284
:10E4D0000F931F93CF93DF93CDB7DEB7A4970FB6FB
:10E4E000F894DEBF0FBECDBF109215021092140239
:10E4F000009709F4C7C01C0166D380FDC5C040E089
:10E5000050E0BA01CE01019691DF8130E9F400E1DB
:10E5100010E02EEB31E040E050E0BA01CE01019670
:10E52000EBD3882311F081E0B0C08D81811102C04E
:10E5300087E0ABC049845A846B847C84B301A20118
:10E54000CE01019673DF03C0412C512C3201833080
:10E5500051F38111EDCF04E210E02DE030E0B30182
:10E56000A201CE010196C8D38111DDCF2A853B855A
:10E5700040E050E0211531054105510521F4288D79
:10E58000398D4A8D5B8DAC81B0E00F943DFB6B0102
:10E590007C010A811B8120E030E0400E511E621E8A
:10E5A000731EF101428653866486758649814283D3
:10E5B0008D809E80958284828F819885A0E0B0E0D6
:10E5C0000097A105B10521F48C899D89AE89BF8989
:10E5D00054E0969487945A95E1F7A12CB12C801BB6
:10E5E000910BA20BB30B8C199D09AE09BF09BC019D
:10E5F000CD01681979098A099B09242F30E040E090
:10E6000050E00F941BFBDA01C9010296A11DB11D58
:10E61000F10186839783A087B187873FFFE09F073B
:10E62000A105B10508F484CF873F9F4FA105B1052F
:10E6300010F083E001C082E0F1018083833029F48F
:10E6400088A199A1AAA1BBA107C0D701C601840DC9
:10E65000951DA61DB71DF10186879787A08BB18BED
:10E66000840C951CA61CB71C8C0C9D1CAE1CBF1CDE
:10E67000F101828A938AA48AB58A118230921502A6
:10E680002092140280E001C082E0A4960FB6F894B4
:10E69000DEBF0FBECDBFDF91CF911F910F91FF90D5
:10E6A000EF90DF90CF90BF90AF909F908F907F9032
:10E6B0006F905F904F903F902F9008954F925F9290
:10E6C0006F927F929F92AF92BF92CF92DF92EF9222
:10E6D000FF920F931F93CF93DF93CDB7DEB7EC97E5
:10E6E0000FB6F894DEBF0FBECDBFC0901402D0901D
:10E6F0001502C114D10409F43CC1D60111961C9233
:10E700009E012F5C3F4F3CA32BA3FC012E2F9F2F7C
:10E7100081918032D9F3E22EF92E8F3219F4BFEFB6
:10E72000EB1AFB0A1DA21EA21FA218A6F7018081E8
:10E73000813238F0A0E29A2E5E01FCE0AF0EB11CEF
:10E740005DC0CE018196ACDD1982882309F4E7C053
:10E7500020C190E080E028E031E0380FD701A80F19
:10E76000B11D8C91813208F054C0E30EF11C91E090
:10E77000813208F090E09387CE01819691DD81117E
:10E78000C5C029A13AA12F703327F5E0220F331F0E
:10E79000FA95E1F74DA55EA56FA578A900E210E016
:10E7A000CE010196A9D28111E8C08981882309F49C
:10E7B000B0C04C8543FD4BC06BA17CA1FE013196DE
:10E7C0009B01EA15FB05D1F5DB011B968C918111AC
:10E7D000A6C044FFD6C08D899E89A0E0B0E0DC01D0
:10E7E000992788274B8D5C8D60E070E0842B952BFA
:10E7F000A62BB72B8DA39EA3AFA3B8A7EBA1FCA11B
:10E80000DF01CF010B96A817B90709F4A2CF9D929B
:10E81000FACF8F3209F4A9CF8E3209F4B4C092171F
:10E8200008F0A3CF4FE9480F4A3108F48052DF01C6
:10E83000A90FB11D8C939F5F832F8ECF8191D9013A
:10E840005D919D0190E0851B910909F4BACF60901C
:10E8500014027090150209A11AA10F5F1F4F09F44D
:10E8600054C08DA59EA5AFA5B8A90097A105B10577
:10E8700009F44BC098012F703327232B09F042C0B5
:10E880000196A11DB11D8DA79EA7AFA7B8AB69A525
:10E890007AA58BA59CA5611571058105910539F4B3
:10E8A000F301848195810817190778F52BC0D301EE
:10E8B00012962C9130E0A901415051099801E4E0F1
:10E8C00036952795EA95E1F724233523232BD1F4B8
:10E8D0002FDD623071058105910508F44CC0F3010C
:10E8E0004680578060847184641575058605970598
:10E8F00060F469A77AA78BA79CA7A7DC6DA77EA762
:10E900008FA798AB1AA309A33CCF83E0833009F00B
:10E9100040C0EBA1FCA18385882399F130C0898197
:10E92000882369F18C8584FD2AC08D899E89A0E0A9
:10E93000B0E0DC01992788274B8D5C8D60E070E0AA
:10E94000842B952BA62BB72BF601868F978FA0A330
:10E95000B1A38D8D9E8DAF8DB8A1828F938FA48F23
:10E96000B58F168A178A108E118E81E0818380E020
:10E9700010C086E00EC081E0C9CF81E00AC083E00C
:10E9800008C084E006C0283009F0EFCE98E02BE004
:10E9900053CFEC960FB6F894DEBF0FBECDBFDF911C
:10E9A000CF911F910F91FF90EF90DF90CF90BF908C
:10E9B000AF909F907F906F905F904F9008954F928F
:10E9C0005F926F927F928F929F92AF92BF92CF92FF
:10E9D000DF92EF92FF920F931F93CF93DF934C013F
:10E9E0006B015A01C0911402D0911502FA011182F3
:10E9F0001082209709F49EC0898180FF9DC08A8D76
:10EA00009B8DAC8DBD8D4E895F89688D798D841B02
:10EA1000950BA60BB70BA60160E070E08417950775
:10EA2000A607B70708F46C013401412C32E0532EDD
:10EA3000C114D10409F479C08E899F89A88DB98D3C
:10EA4000AC01BD01517066277727452B462B472B1C
:10EA5000D1F5FA80FA94AC01BD0129E0769567956D
:10EA6000579547952A95D1F7F422C1F4892B8A2B23
:10EA70008B2B29F46E8D7F8D88A199A105C06AA189
:10EA80007BA18CA19DA154DC6230710581059105AB
:10EA900008F44DC06AA37BA38CA39DA36AA17BA1AC
:10EAA0008CA19DA1D2DB611571058105910509F449
:10EAB0003EC0DC01CB018F0D911DA11DB11D8EA3A8
:10EAC0009FA3A8A7B9A72E893F893170C201821BD5
:10EAD000930B76018C159D0508F47C014EA15FA176
:10EAE00068A579A58114910411F0C30102C080E0EA
:10EAF00090E0870101D181111AC08E899F89A88D6C
:10EB0000B98D8E0D9F1DA11DB11D8E8B9F8BA88F62
:10EB1000B98F6E0C7F1CCE18DF08F50180819181C2
:10EB2000E80EF91EF182E08283CF80E006C01982F0
:10EB300081E003C086E001C085E0DF91CF911F91A5
:10EB40000F91FF90EF90DF90CF90BF90AF909F908C
:10EB50008F907F906F905F904F900895FF920F93EA
:10EB60001F93CF93DF93C82FD42F152F062FF72E87
:10EB700087FF08C040E050E0BA0187E7EFDF82304E
:10EB8000E0F4CF7723D18C2F26D18F2D24D1802F65
:10EB900022D1812F20D18D2F1ED1C03421F0C83435
:10EBA00021F487E803C085E901C081E014D1CAE0FF
:10EBB00011D187FF02C0C150D9F7DF91CF911F91CA
:10EBC0000F91FF900895DF92EF92FF920F931F93A2
:10EBD000CF93DF9300D01F92CDB7DEB7EAD014E613
:10EBE000EDD01150E9F71AE0F4D01150E9F740E008
:10EBF00050E0BA0180E4B2DF813009F06FC04AEA28
:10EC000051E060E070E088E4A9DF813039F58E01E1
:10EC10000F5F1F4F780124E0D22ED00EDBD0F7011A
:10EC200081937F01DE12FACF8B81813009F056C0CB
:10EC30008C818A3A09F052C090E1E92E97E2F92ED0
:10EC400040E050E060E070E489EE88DF882319F14D
:10EC5000B5D0F1E0EF1AF10899F740C040E050E07C
:10EC6000BA0189EE7BDF823018F011E001E402C0C6
:10EC700012E009EE80E1E82E87E2F82E40E050E055
:10EC8000BA01802F6BDF882309F198D0F1E0EF1AE9
:10EC9000F108A1F723C040E050E0BA018AE75EDF47
:10ECA00081111CC097D0F80181938F01DE12FACF39
:10ECB000898186FD02C014E001C01CE01093160299
:10ECC00088D081E0112361F080E00AC040E052E08A
:10ECD00060E070E080E542DF882381F310E0EECF52
:10ECE0000F900F900F900F90DF91CF911F910F9188
:10ECF000FF90EF90DF900895AF92BF92CF92DF9296
:10ED0000EF92FF920F931F93CF93DF931F92CDB794
:10ED1000DEB7D82EC92E79018091160283FD07C077
:10ED200099E0440F551F661F771F9A95D1F781E52B
:10ED300015DF882311F081E02DC080E4A82E8CE936
:10ED4000B82E48D08F3F29F481E0A81AB108C9F73E
:10ED5000F2CF8E3F81F782E092E05C01A01AB10A07
:10ED6000AE18BF08E114F10419F4ED2CFC2C05C019
:10ED700031D0E1E0EE1AF108F5CF2CD0F701819304
:10ED80007F0101501109C9F725D0F1E0AF1AB10890
:10ED9000D9F780E089831DD089810F90DF91CF91D1
:10EDA0001F910F91FF90EF90DF90CF90BF90AF90A9
:10EDB0000895209A229A219A2B9A089580EA3197F1
:10EDC0003197319700008A95D1F7089502D028989D
:10EDD00001C0289A8FEF98E087FD2A9A87FF2A982A
:10EDE000880F1B998395299A29989A95A9F70895D0
:10EDF000FB018BBF83E080935700E895809157001B
:10EE000080FDFCCF81E180935700E89508950F9233
:10EE10001F928BBFFB01DA0190E80D901D9081E0FD
:10EE200080935700E89532969A95B9F7FB0185E0F3
:10EE300080935700E8958091570080FDFCCF81E1D9
:10EE400080935700E8951F900F900895CF93DF931C
:10EE5000CDB7DEB7CA52D1400FB6F894DEBF0FBEB1
:10EE6000CDBF01E20EBF0FEF0DBF94B7F894A89588
:10EE700014BE8091600088618093600010926000F1
:10EE8000789493FF05C0E0911202F0911302199556
:10EE9000279A2F9A8091C00082608093C00080E101
:10EEA0008093C40088E18093C1000000C12CD12C64
:10EEB0007601A7EC8A2EABE19A2EA12CB12C00E0B2
:10EEC00010E08091C00087FF04C0C8010196B9F32B
:10EED00025C001151105C9F725E02A95F1F70000B5
:10EEE0005FEFC51AD50AE50AF50A91E080E061E214
:10EEF000C6166EE4D606E104F10408F490E0092F8A
:10EF0000182FC701B601A501940195D3672B682B73
:10EF1000692BB9F685B1805885B9D3CF8130910579
:10EF200009F005C3C15EDE4F19821882CF51D1406E
:10EF3000A12CB12C612C712C812C912C212C312CE9
:10EF40002101C12CD12C760120E030E040E0019776
:10EF5000B1F081E092E1AAE7B0E05091C00057FD26
:10EF60000EC00197A109B109C1F7ABBFFC018791A0
:10EF70009691019671F3EE27FF270994EACF8091CD
:10EF8000C600C15EDE4FA881B981CF51D140119634
:10EF9000C15EDE4FB983A883CF51D1408132A1F445
:10EFA0001A9708F05BC0BFEFAB1ABB0AE3E0AE16DE
:10EFB000B10409F055C0A12CB12C21E0C25EDE4F96
:10EFC0002883CE51D14063C0433029F120F4413031
:10EFD00099F050F017C0453069F118F1463009F04A
:10EFE0004CC0A12CB12C46C0A12CB12C8B3109F402
:10EFF00000C380E090E0ABCFA12CB12C7826682E26
:10F0000042E0F7CFA12CB12C282F30E0322F22275D
:10F01000782643E0EECFA12CB12C282B782644E0B3
:10F02000E8CFA12CB12C8E3009F0F0C27826812CCB
:10F03000912CE4C2A12CB12CA4014F5F5F4FE1E001
:10F04000F0E0EC0FFD1FE80DF91D808378264217D4
:10F05000530709F0D2C2490146E0CBCFA12CB12C15
:10F060004330D9F208F4CCC2453031F308F4CEC2B3
:10F07000463029F48711CAC205C0A12CB12C4730F3
:10F0800009F0B7CFC25EDE4F1882CE51D140498120
:10F09000433109F4DAC060F5463009F4C4C0F8F42D
:10F0A000423009F475C1433009F464C0413009F0BD
:10F0B000E6C11A8288E08B8381E48C8386E58D83A8
:10F0C00082E58E8389E48F8383E5888780E589875D
:10F0D0008FE58A8782E38B870BE010E0D4C1413152
:10F0E00009F455C008F097C0403109F451C1C7C1B7
:10F0F000483109F46AC048F4453109F4A6C008F45F
:10F1000049C1463109F446C1BAC14A3109F451C076
:10F1100008F470C04B3109F441C04D3109F0AFC162
:10F120009D81903339F48F818823B1F08130B1F023
:10F1300081E017C0892F807599F0903521F489E01E
:10F14000E0E0F0E005C0983559F4E3E0F0E089E054
:10F1500080935700849105C08EE103C088E901C007
:10F1600080E01A821B829C831D828E831F8207E0AF
:10F1700010E089C1EA81E059E33028F4F0E0EF5F64
:10F18000FD4F808101C080E01A828B8341C021E065
:10F19000C25EDE4F2883CE51D140FAC08D818823D4
:10F1A00021F0813021F081E023C08EE121C088E987
:10F1B0001FC01A82E1E0F0E089E08093570084915B
:10F1C0008B831C8204E010E05EC18B81803551F49A
:10F1D0008C81883019F4E2E0F0E006C089E0E0E0DC
:10F1E000F0E003C0E3E0F0E089E080935700849111
:10F1F0001A82E6CF8D81836C99E0E1E0F0E0082E81
:10F2000090935700E89507B600FCFDCF1A821B8249
:10F2100003E010E038C180EC8A8302E010E0212C8A
:10F22000312C210130C18A81CB80D12CE12CF12CF1
:10F230007601DD24CC24F82A8D81C82A8C81D82A35
:10F24000CC0CDD1CEE1CFF1CA3C02A8130E0322F49
:10F2500022278B81282B433109F043C02114F0EC85
:10F260003F06F3E04F06510470F483E0F101409251
:10F270005B0080935700E89507B600FCFDCF5FEF79
:10F28000351A450A550A8B85B701A601DE011B9682
:10F2900011E01296FD013197E08190E09E2B0C0168
:10F2A000FA0160935B0010935700E89511244E5FBC
:10F2B0005F4F6F4F7F4F2250310911F08C91E9CF92
:10F2C00085E0F601E0925B0080935700E89507B671
:10F2D00000FCFDCF81E180935700E8956A017B0136
:10F2E00057C0C701B6019695879577956795CF5D0D
:10F2F000DE4F688379838A839B83C152D140AE01FC
:10F30000455F5F4F00E010E002171307B9F1DA0123
:10F310006D91AD01CF5DDE4F88819981C152D140A1
:10F32000800F911FC95DDE4F2883C752D140C85D51
:10F33000DE4F3883C852D140CB5DDE4FA883C55223
:10F34000D140CA5DDE4F5883C652D140D2D10F5F43
:10F350001F4FCA5DDE4F5881C652D140CB5DDE4F94
:10F360004881C552D140C85DDE4F3881C852D14076
:10F37000C95DDE4F2881C752D140C6CF20E030E0C2
:10F38000000F111F221F331FC00ED11EE21EF31EDD
:10F390001A8277C08A8190E0982F88272B81BC0140
:10F3A000622BC75DDE4F79836883C952D1408B01E0
:10F3B0000D5F1F4F1A82443101F5DE011396EBBE3B
:10F3C000F601279136912C931296FD0131973083E7
:10F3D00072E0C70ED11CE11CF11CC75DDE4F8881B5
:10F3E0009981C952D1400297C75DDE4F99838883C6
:10F3F000C952D140892B19F740C0FE013396C75D31
:10F40000DE4F28813981C952D140B701A60141BDE3
:10F41000BB27A72F962F852FCF5DDE4F888399833B
:10F42000AA83BB83C152D14082BD4F5F5F4F6F4FF4
:10F430007F4FF89AA0B5A1932150310941F7C75DDC
:10F44000DE4F48815981C952D1404150510960E095
:10F4500070E04F5F5F4F6F4F7F4FC40ED51EE61EAB
:10F46000F71EA3E0B0E0AC0FBD1FC75DDE4F6881A3
:10F470007981C952D140A60FB71F1C9204C080ECFD
:10F480008A8302E010E08BE10F94A0F0862D0F94A8
:10F49000A0F0812F0F94A0F0802F0F94A0F085E1B1
:10F4A000762C782670268EE00F94A0F071269E01AF
:10F4B0002F5F3F4F020F131F2017310731F1D90182
:10F4C0009D919D01892FC95DDE4FA883C752D14010
:10F4D000C85DDE4F3883C852D140CB5DDE4F988384
:10F4E000C552D1400F94A0F0CB5DDE4F9881C5523C
:10F4F000D1407926C85DDE4F3881C852D140C95D00
:10F50000DE4F2881C752D140D7CF872D0F94A0F06E
:10F51000639485B1805885B980E090E0C25EDE4F8B
:10F520002881CE51D140222309F40ECD54C0029738
:10F5300009F051C08FEF93E0D4D0803F09F04BC069
:10F5400087E192E00F945AF284E092E0B7D88111FB
:10F5500042C08DE00F94A0F08AE00F94A0F0C12C7F
:10F56000D12C760185B1805885B982E390E00F9463
:10F57000ACF0C701B6013CDC40E051E06FEF70E059
:10F5800089E492E0A7D0AE014F5F5F4F60E071E089
:10F5900089E492E014DA89819A81892B29F049E47F
:10F5A00052E0C701B60133DC5FEFD51AE50AF50A70
:10F5B000C11460EED60663E0E606F10499F68DE02C
:10F5C0000F94A0F08AE00F94A0F0109200026FEF69
:10F5D0008FEF93E08ED000008091C0008D7F8093EC
:10F5E000C00081E180935700E895EE27FF2709943A
:10F5F000FFCF8BE1782E41E0FCCC4A0145E0F9CC0D
:10F60000413009F4FBCC08F4F4CCFECC40E0F1CC62
:10F6100097FB072E16F4009406D077FD08D037D05C
:10F6200007FC05D03EF4909581959F4F0895709505
:10F6300061957F4F0895A1E21A2EAA1BBB1BFD0105
:10F640000DC0AA1FBB1FEE1FFF1FA217B307E407C1
:10F65000F50720F0A21BB30BE40BF50B661F771F19
:10F66000881F991F1A9469F76095709580959095F9
:10F670009B01AC01BD01CF0108951DD0A59F900D48
:10F68000B49F900DA49F800D911D11240895AA1B75
:10F69000BB1B51E107C0AA1FBB1FA617B70710F07D
:10F6A000A61BB70B881F991F5A95A9F780959095AF
:10F6B000BC01CD010895A29FB001B39FC001A39FDB
:10F6C000700D811D1124911DB29F700D811D11249B
:10F6D000911D0895DC0101C06D9341505040E0F749
:10F6E0000895F999FECF92BD81BDF89A992780B50A
:10F6F0000895262FF999FECF1FBA92BD81BD20BD76
:10F700000FB6F894FA9AF99A0FBE01960895F894F4
:02F71000FFCF29
:10F71200010F020A6669726D776172652E62696E07
:02F722000000E5
:040000033000E000E9
:00000001FF
